HD00100628IDR00002340000000000012340020170721
D12345678901IDR000000700000000AMIR                                       989765498   TRANSFER JUL 2017  
D02345678902IDR000000700000000AYU                                        854354543   TRANSFER JUL 2017  
D12345678903IDR000000700000000ADI                                        123456789   TRANSFER JUL 2017  
D00345678904IDR000000450000045DWI                                        123456790   TRANSFER JUL 2017  
D12345678905IDR000000400000000RATIH                                      123456791   TRANSFER JUL 2017  
D12345678906IDR000000400000000YUDI                                       123456792   TRANSFER JUL 2017  
D12345678907IDR000000400000000ALEX                                       123456793   TRANSFER JUL 2017  
D12345678908IDR000000400000000JOKO                                       123456794   TRANSFER JUL 2017  
D00045678909IDR000000400000000BAMBANG                                    123456795   TRANSFER JUL 2017  
D12345678910IDR000000400000576TOFIK                                      123456796   TRANSFER JUL 2017  
D12345678911IDR000000400000000BIMO                                       123456797   TRANSFER JUL 2017  
D12345678912IDR000000800000000SUSI                                       123456798   TRANSFER JUL 2017  
D12345678913IDR000000500000000ARYA                                       123456799   TRANSFER JUL 2017  
D12345678914IDR000000560000000ARDI                                       123456800   TRANSFER JUL 2017  
D12345678915IDR000000375000000INDRA                                      123456801   TRANSFER JUL 2017  
D12345678916IDR000000375000000ARIS                                       123456802   TRANSFER JUL 2017  
D00345678917IDR000000375000000SODIK                                      123456803   TRANSFER JUL 2017  
D12345678918IDR000000375000000JOJON                                      123456804   TRANSFER JUL 2017  
D12345678919IDR000000375000000YAYA                                       123456805   TRANSFER JUL 2017  
D12345678920IDR000000375000000MINI                                       123456806   TRANSFER JUL 2017  
D12345678921IDR000000375000000YANTO                                      123456807   TRANSFER JUL 2017  
D12345678922IDR000000375000000IWAN                                       123456808   TRANSFER JUL 2017  
D12345678923IDR000000375000000AGUS                                       123456809   TRANSFER JUL 2017  
D12345678924IDR000000375000000BUDI                                       123456810   TRANSFER JUL 2017  
D12345678925IDR000000375000000IMAM                                       123456811   TRANSFER JUL 2017  
D12345678926IDR000000375000000KOLIS                                      123456812   TRANSFER JUL 2017  
D12345678927IDR000000375000000MELI                                       123456813   TRANSFER JUL 2017  
D12345678928IDR000000450000045ERWIN                                      123456814   TRANSFER JUL 2017  
D12345678929IDR000000360000000ARIF                                       123456815   TRANSFER JUL 2017  
